:020000040800F2
:100000000050002085140008451100084B1100081D
:1000100000000000000000000000000000000000E0
:100020000000000000000000000000005111000866
:1000300000000000000000005B11000865110008CE
:10004000D5140008D5140008D5140008D5140008EC
:10005000D5140008D5140008D5140008D5140008DC
:1000600000000000D5140008D5140008D5140008BD
:10007000D5140008D5140008D5140008D5140008BC
:10008000D5140008D5140008D5140008000000009D
:10009000D5140008D5140008D5140008D51400089C
:1000A000D5140008D5140008D514000875110008EF
:1000B000D5140008D514000800000000000000005E
:1000C00010B5064C2378002B07D1054B002B02D02E
:1000D000044800E000BF0123237010BDE0000020B1
:1000E00000000000C8750008044B10B5002B03D0B9
:1000F0000349044800E000BF10BDC04600000000F6
:10010000E4000020C875000802780B78002A03D0AC
:10011000013001319A42F7D0D01A70470023C25CF7
:100120000133002AFBD1581E7047000003B471460A
:10013000490840004900095E49008E4403BC7047ED
:10014000002243088B4274D303098B425FD3030A16
:100150008B4244D3030B8B4228D3030C8B420DD329
:10016000FF22090212BA030C8B4202D312120902B7
:1001700065D0030B8B4219D300E0090AC30B8B42F5
:1001800001D3CB03C01A5241830B8B4201D38B03A3
:10019000C01A5241430B8B4201D34B03C01A524148
:1001A000030B8B4201D30B03C01A5241C30A8B428B
:1001B00001D3CB02C01A5241830A8B4201D38B0276
:1001C000C01A5241430A8B4201D34B02C01A52411A
:1001D000030A8B4201D30B02C01A5241CDD2C3098C
:1001E0008B4201D3CB01C01A524183098B4201D308
:1001F0008B01C01A524143098B4201D34B01C01AF3
:10020000524103098B4201D30B01C01A5241C3086A
:100210008B4201D3CB00C01A524183088B4201D3D9
:100220008B00C01A524143088B4201D34B00C01AC5
:100230005241411A00D20146524110467047FFE731
:1002400001B5002000F0F0F802BDC0460029F7D04B
:1002500076E7704703460B437FD4002243088B4266
:1002600074D303098B425FD3030A8B4244D3030B3D
:100270008B4228D3030C8B420DD3FF22090212BA02
:10028000030C8B4202D31212090265D0030B8B427E
:1002900019D300E0090AC30B8B4201D3CB03C01A68
:1002A0005241830B8B4201D38B03C01A5241430B43
:1002B0008B4201D34B03C01A5241030B8B4201D333
:1002C0000B03C01A5241C30A8B4201D3CB02C01A9E
:1002D0005241830A8B4201D38B02C01A5241430A16
:1002E0008B4201D34B02C01A5241030A8B4201D305
:1002F0000B02C01A5241CDD2C3098B4201D3CB01AC
:10030000C01A524183098B4201D38B01C01A52415A
:1003100043098B4201D34B01C01A524103098B425E
:1003200001D30B01C01A5241C3088B4201D3CB0049
:10033000C01A524183088B4201D38B00C01A52412C
:1003400043088B4201D34B00C01A5241411A00D2DC
:1003500001465241104670475DE0CA0F00D0494245
:10036000031000D34042534000229C4603098B42B5
:100370002DD3030A8B4212D3FC22890112BA030A3D
:100380008B420CD3890192118B4208D389019211BF
:100390008B4204D389013AD0921100E08909C30944
:1003A0008B4201D3CB01C01A524183098B4201D346
:1003B0008B01C01A524143098B4201D34B01C01A31
:1003C000524103098B4201D30B01C01A5241C308A9
:1003D0008B4201D3CB00C01A524183088B4201D318
:1003E0008B00C01A5241D9D243088B4201D34B0033
:1003F000C01A5241411A00D20146634652415B1075
:10040000104601D34042002B00D549427047634655
:100410005B1000D3404201B5002000F005F802BD9A
:100420000029F8D016E770477047C046002B15D159
:10043000002A13D1002906DB01DC002806D00020A9
:10044000C043410802E080210906002007B40248A9
:1004500001A14018029003BDD1FFFFFF03B468461D
:1004600001B5029800F020F9019B9E4602B00CBC39
:100470007047C046002B11D1002A0FD1002900D1AE
:10048000002802D00021C943080007B4024802A195
:100490004018029003BDC04691FFFFFF03B46846B9
:1004A00001B5029800F034F8019B9E4602B00CBCE6
:1004B0007047C046F0B5CE46474680B5070099461E
:1004C0003B0C9C4613041B0C1D000E0061460004EF
:1004D000140C000C45434B4360436143C0182C0C83
:1004E00020188C46834203D980235B029846C4447B
:1004F000494679437243030C63442D042D0CC918FB
:10050000000440198918C0BCB946B046F0BDC046C9
:10051000F0B557464E464546DE46E0B504000D00B0
:100520009246994683B08B4230D82DD049465046EA
:1005300000F0D8F829000600200000F0D3F8331AA4
:100540009846203B9B4633D45A46534693404246F6
:100550001F00534693401E00AF423AD8AF4200D12D
:1005600078E05B46A41BBD41002B00DA75E0002259
:1005700000230092019301235A46934001930123E3
:1005800042469340009328E08242CFD900220023C4
:10059000009201930C9B002B01D01C605D600098C1
:1005A000019903B0F0BCBB46B246A946A046F0BDD7
:1005B000424620239B1A5246DA40414613004A46DF
:1005C0008A40170042461F43534693401E00AF42E5
:1005D000C4D900220023009201934346002BD9D0B6
:1005E000FB0772081A4346467B080EE0AB4201D176
:1005F000A2420CD8A41A9D41012024196D4100216A
:10060000013E24184D41002E06D0AB42EED9013EEA
:1006100024196D41002EF8D1009801995B4600190C
:100620006941002B24DB2B005A464446D3402A0064
:10063000E2401C005B461500002B2ADB26009E4092
:10064000330026004746BE403200801A9941009090
:1006500001919FE7A342BCD883E7424620230021B3
:100660009B1A0022009101920122DA40019286E752
:10067000424620239B1A2A0046469A402300F34014
:10068000444613432A00E2401C005B461500002B41
:10069000D4DA42462F002023260097409B1ADE40E2
:1006A0003B003343CDE7C046F8B5CE46474680B55C
:1006B0009146984604000D0000F020F807000E0057
:1006C00002000B0048464146FFF7F4FE241A8D4114
:1006D000089B380031001C605D60C0BCB946B04664
:1006E000F8BDC04610B5002903D100F0EDF8203068
:1006F00002E0080000F0E8F810BDC046F0B557462B
:100700004E464546DE46E0B50F00190000230600C0
:100710009846100083B0002F07DA33003C00002712
:100720005E42A74101235B429846002907DA43460F
:10073000DB430C009846030000215842A1413400DD
:100740003D0082468946B9426AD867D0494650463C
:10075000FFF7C8FF834639003000FFF7C3FF5B4651
:100760001B1A9C46203B9B466BD458465146814001
:1007700060460B00514681400A00BB4200D972E03E
:10078000BB4200D179E034003D005946A41A9D4196
:10079000002900DA74E00021002001260090019178
:1007A00059468E400196614601268E40614600966C
:1007B00000295FD0D90756080E435F086146012221
:1007C00000230CE0AF4201D1A6420AD8A41BBD41D0
:1007D00024196D410139A4185D41002906D0AF42AA
:1007E000F0D9013924196D410029F8D100980199F7
:1007F0005B4600196941002B4DDB2E002C00DE40CA
:100800006346DC405B46002B55DB34009C402300F4
:100810006446A6403200801A994103E0B04295D95F
:10082000002000214346002B04D003000C000021CF
:100830005842A14103B0F0BCBB46B246A946A0460F
:10084000F0BD624648462023514690409B1AD9404D
:1008500003000091009960460B43514681400A0015
:10086000BB4200D88CE70021002000900191614636
:1008700000299FD100980199D4E7B142F3D882E7CB
:10088000614620260127761A00200021F7400090BB
:100890000191019787E7624620239B1A2A009A401C
:1008A000260013006246D6402C001E436346DC40FF
:1008B0005B46002BA9DA62462023350094409B1A40
:1008C000DD4023002B43A3E71C2101231B04984296
:1008D00001D3000C10391B0A984201D3000A0839D1
:1008E0001B09984201D30009043902A2105C401888
:1008F0007047C0460403020201010101000000002C
:100900000000000080B500AF00F0E6FD00F066F8E2
:1009100000F06AF900F0D0F800F034F900F070FD52
:1009200000F040FE0200264B1A6000F099F9020028
:10093000244B1A60C04600F035FE0200204B1B68B5
:10094000D31A214A9342F6D900F08AF902001D4BCE
:100950001B68D21A1D4B1A601C4B1B681C4A534360
:100960003C211800FFF7ECFB03009AB2194B1A80E8
:10097000194B1B68CA225A62174B1B6853225A62D2
:10098000154B180002F0E1FA124B1B886421180085
:10099000FFF7D6FB03009BB2C622D2039A180E4B78
:1009A0001B681A610C4B1B68DA680B4B1B68102123
:1009B0000A40DA60084B1B68FF225A62FEE7C04615
:1009C000A8010020A401002060EA0000AC01002082
:1009D00088900000B0010020FC00002090B59BB082
:1009E00000AF34243B19180034231A00002104F00E
:1009F00006F82023FB18180014231A00002103F026
:100A0000FEFF3B00180020231A00002103F0F7FF2F
:100A1000274B1B68274A1A40254B802109010A43AE
:100A20001A6021007B180A221A607B180122DA6002
:100A30007B1810221A617B1801225A617B18002250
:100A40005A627B18180001F0B9F8031E01D000F0BB
:100A500001F920217B180F221A607B1801225A60AD
:100A60007B1800229A607B180022DA607B18002233
:100A70001A617B180021180001F01CFC031E01D034
:100A800000F0E8F83B0021221A603B0002229A6045
:100A90003B00802292025A603B00180001F02EFEBB
:100AA000031E01D000F0D6F8C046BD461BB090BD75
:100AB00000700040FFE7FFFF80B586B000AF3B1D30
:100AC000180014231A00002103F099FF3B000022B4
:100AD0001A602A4B2A4A1A60284B00225A60274B78
:100AE0007D229A60254B4422FF32DA60234B00229C
:100AF0001A61224B00225A61204B00229A611F4B3F
:100B00000022DA611D4B180001F03EFF031E01D0E8
:100B100000F0A0F83B1D00221A703B1D00225A7005
:100B20003B1D00229A703B1D0022DA603B1D002213
:100B30001A61391D114B0022180001F0C3FF031E7A
:100B400001D000F087F83B0001221A703B0001221F
:100B50005A703B0001229A703B000022DA70390083
:100B6000064B0022180002F0CDF8031E01D000F061
:100B700071F8C046BD4606B080BDC046FC000020EE
:100B80000028004080B500AF154B164A1A60144B80
:100B9000E122D2025A60124B00229A60104B80224E
:100BA0009201DA600E4B00221A610D4B0C225A6141
:100BB0000B4BC02292009A61094B0022DA61084B6C
:100BC00000221A62064B00225A62054B180002F0FE
:100BD0002BFA031E01D000F03DF8C046BD4680BD93
:100BE000200100200038014080B586B000AF3B1DD9
:100BF000180014231A00002103F001FF144BDA6AD5
:100C0000134B01210A43DA62114BDB6A01221340C4
:100C10003B603B68A023DB0501220121180000F0A6
:100C2000AFFF3B1D01221A603B1D01225A603B1D94
:100C300000229A603B1D0022DA603A1DA023DB05EA
:100C40001100180000F01EFEC046BD4606B080BD73
:100C50000010024080B500AF72B6C046FEE700004B
:100C6000F0B593B002AF242579192A4B0022180061
:100C700001F0ECFF3826B919264B0022180002F0CB
:100C8000EFF87B191B781A007B195B781C007B1925
:100C90009B78214921480093230004F045FABB19B1
:100CA000DB781F4A9A18BB195B781C00BB199B782C
:100CB0001C491D480093230004F036FA31007B18CC
:100CC000DB781A003B005A617B189B781A003B00C6
:100CD000DA607B185B785A1E3B001A617B191B781F
:100CE0001A003B009A607B195B781A003B005A603F
:100CF0007B199B781A003B001A603B00180003F038
:100D000051FF02000B001300FB63FB6B1800BD4694
:100D100011B0F0BDFC000020E0750008C401002007
:100D20006C070000F0750008B401002084B0B0B575
:100D300086B000AF28257C1920606160A260E36066
:100D40003B1D180014231A00002103F058FE3B003D
:100D500000221A6029007B189B68DAB23B1D1A70CA
:100D60007B185B68DAB23B1D5A707B181B68DAB2DD
:100D70003B1D9A703B1D0022DA603B1D00221A6168
:100D8000391D194B0022180001F09CFE031E01D0F2
:100D9000FFF760FF28217B189B69DBB20133DAB2D1
:100DA0003B001A707B181B69DBB20133DAB23B00DF
:100DB0005A707B18DB68DAB23B009A707B185B696B
:100DC000DAB23B00DA703900074B0022180001F05C
:100DD00099FF031E01D0FFF73DFFC046BD4606B098
:100DE000B0BC08BC04B01847FC000020B0B592B0FD
:100DF00006AF386079603B00180003F0C3FC0200C6
:100E00000C217B1831CA31C331CA31C331CA31C355
:100E10007B186A4611001A00103231CA31C111CA5A
:100E200011C1186859689A68DB68FFF77FFFC046F0
:100E3000BD460CB0B0BD000080B582B000AFFFF77A
:100E40000FFF174B1800FFF769F903001A00144B46
:100E5000D218144B1000190004231A0003F0C6FD29
:100E6000114A0F4B1100180004F07EF903007B605B
:100E70007B681800FFF752F903001A007B689A1884
:100E80000A4B1000190003231A0003F0AFFD7B6822
:100E9000180000F0D1FAC046BD4602B080BDC04681
:100EA000B401002000760008C40100200476000888
:100EB00080B586B000AF78607B68180003F032FC24
:100EC00003003B61DB177B610A493A697B690A6071
:100ED0004B603A697B6910001900FFF787FF064BEA
:100EE000FB60FB68180000F0A7FAC046BD4606B0DC
:100EF00080BDC046000000200876000880B586B09E
:100F000000AF786000233B611E4BFB600823FB1899
:100F100073221A807B68180003F004FC030002337C
:100F20003B613A698023DB009A4220DA00237B612F
:100F300009E00823FA18FB681100180004F014F9FE
:100F40007B6901337B613B69023B7A699A42F0DB42
:100F50000022FB689A180C4B1000190002231A009B
:100F600003F044FDFB68180000F066FA05E0074B4B
:100F7000FB60FB68180000F05FFAC046BD4606B093
:100F800080BDC04614760008187600081C7600085C
:100F900080B584B000AF78603960174A7B68110073
:100FA0001800FFF7B1F8031E02D1FFF745FF1FE05D
:100FB000124A7B6811001800FFF7A6F8031E04D13F
:100FC0003B681800FFF774FF12E00D4A7B681100C0
:100FD0001800FFF799F8031E04D13B681800FFF7CB
:100FE0008DFF05E0074BFB60FB68180000F024FA5A
:100FF000C046BD4604B080BD447600084C7600086B
:10100000547600085C76000890B587B000AF786031
:101010000C217B1820221A8000237B6100233B6176
:101020000C007A187B681100180004F0ABF803007C
:101030007B613B191900002004F0A4F803003B6118
:101040003A697B6911001800FFF7A2FFC046BD4650
:1010500007B090BD80B500AF074B5A6B064B01211E
:101060000A435A63044B9A6B034B802149050A4398
:101070009A63C046BD4680BD0010024080B582B074
:1010800000AF78607B681B68064A934206D1064B26
:101090001A6D054B8021C9020A431A65C046BD4638
:1010A00002B080BD002800400010024090B589B019
:1010B00000AF78600C243B19180014231A0000219B
:1010C00003F09DFC7B681B681C4A934232D11C4B89
:1010D0005A6B1B4B8021C9010A435A63184BDA6AC9
:1010E000174B01210A43DA62154BDB6A01221340D8
:1010F000BB60BB683B19F02252011A6021007B18CB
:1011000002225A607B1800229A607B180322DA6060
:101110007B1804221A617A18A023DB05110018003D
:1011200000F0B0FB002200211B2000F0F1FA1B2090
:1011300000F003FBC046BD4609B090BD0038014039
:101140000010024080B500AFFEE780B500AFFEE7BB
:1011500080B500AFC046BD4680BD80B500AFC0467B
:10116000BD4680BD80B500AF00F00AFAC046BD465E
:1011700080BD000080B500AF034B180002F0B8F846
:10118000C046BD4680BDC0462001002080B500AFEE
:1011900001231800BD4680BD80B582B000AF7860E5
:1011A000396003F0C5FA030016221A6001235B427E
:1011B0001800BD4602B080BD80B582B000AF786037
:1011C00001235A427B6811001800FFF7E5FFFEE794
:1011D00080B586B000AFF860B9607A6000237B61AB
:1011E0000AE000E000BF0100BB685A1CBA60CAB246
:1011F0001A707B6901337B617A697B689A42F0DB04
:101200007B681800BD4606B080BD80B586B000AFD3
:10121000F860B9607A6000237B6109E0BB685A1C02
:10122000BA601B78180000E000BF7B6901337B6166
:101230007A697B689A42F1DB7B681800BD4606B08C
:1012400080BD80B582B000AF786001235B4218009A
:10125000BD4602B080BD80B582B000AF7860396015
:101260003B68802292015A6000231800BD4602B0FC
:1012700080BD80B582B000AF786001231800BD4604
:1012800002B080BD80B584B000AFF860B9607A600C
:1012900000231800BD4604B080BD000080B586B0B4
:1012A00000AF7860144A154BD31A7B617B693B61B0
:1012B000134B1B68002B02D1114B124A1A60104BC2
:1012C0001A687B68D3183A699A4207D203F030FA59
:1012D00003000C221A6001235B4209E0084B1B68E3
:1012E000FB60074B1A687B68D218054B1A60FB68D5
:1012F0001800BD4606B080BD00500020000400006C
:10130000D80100206002002080B500AFC046BD4675
:1013100080BD000080B582B000AF00237B6007E095
:10132000074A7B68D31800221A707B6801337B6000
:101330007B683F2BF4DDC046C046BD4602B080BD91
:10134000E401002080B500AF164B1B78002B26D09F
:10135000144B1B780A2B12D0134B1B683F2B0BDC52
:10136000114B1B680F4A1178104AD1540E4B1B6861
:101370005A1C0D4B1A600FE0FFF7CCFF0CE0094B35
:101380001B780A2B08D1094B1800FFF73DFE064BCE
:1013900000221A60FFF7BEFF024B00221A70C046FF
:1013A000BD4680BDE0010020DC010020E4010020FA
:1013B00090B583B000AF0F4B7B600F4B74220021C0
:1013C0009954FC1C0D490C4B0122180001F028FF18
:1013D00003002370FB1C1B78002B01D0FFF73AFCA5
:1013E0007B681978044B74229954C046BD4603B0FB
:1013F00090BDC0469401002020010020E0010020A3
:1014000080B500AFFFF7D4FFC046BD4680BD0000E9
:1014100080B582B000AF78607B681B68054A934254
:1014200003D1FFF78FFFFFF7C3FFC046BD4602B0F1
:1014300080BDC04600380140F0B585B000AF78608F
:101440007B681800FEF76AFE02000E217B181A80E6
:101450000D26BC1901235D427B181A88796808485B
:101460002B0001F035FE03002370BB191B78002B05
:1014700001D0FFF7EFFBC046BD4605B0F0BDC0464A
:10148000200100200D4885460D480E490E4A0023D4
:1014900002E0D458C4500433C4188C42F9D30B4A28
:1014A0000B4C002301E013600432A242FBD3FFF790
:1014B0002BFF03F043F9FFF725FAFEE70050002069
:1014C00000000020E0000020D87A0008E0000020A2
:1014D00060020020FEE7000080B582B000AFFB1D77
:1014E00000221A700B4B1A680A4B40210A431A60FB
:1014F000032000F011F8031E03D0FB1D01221A7017
:1015000001E0FFF7A7FDFB1D1B781800BD4602B0E8
:1015100080BDC0460020024090B583B000AF786027
:10152000144B1C68144B1B781900FA239800FEF723
:1015300007FE030019002000FEF702FE030018005A
:1015400000F00BF9031E01D001230FE07B68032B91
:101550000BD8796801235B420022180000F0D8F80C
:10156000064B7A681A60002300E001231800BD468C
:1015700003B090BD0C0000201400002010000020DB
:1015800080B500AF054B1B781A00054B1B68D218BD
:10159000034B1A60C046BD4680BDC0461400002003
:1015A0002402002080B500AF024B1B681800BD4626
:1015B00080BDC0462402002080B582B000AF02008A
:1015C000FB1D1A70FB1D1B787F2B09D8FB1D1B7898
:1015D0001A001F231A40044B012191400A001A608F
:1015E000C046BD4602B080BD00E100E090B583B0CA
:1015F00000AF02003960FB1D1A70FB1D1B787F2BAA
:1016000028D82F4AFB1D1B785BB29B08C0339B0078
:101610009B58FA1D1278110003220A40D200FF21C4
:1016200091400A00D2431A4011003B689B01FF22FF
:101630001A40FB1D1B78180003230340DB009A406F
:101640001F48FB1D1B785BB29B080A43C0339B00FD
:101650001A5031E01B4AFB1D1B7819000F230B4069
:10166000083B9B0806339B00D31804331B68FA1D04
:101670001278110003220A40D200FF2191400A0093
:10168000D2431A4011003B689B01FF221A40FB1D08
:101690001B78180003230340DB009A400948FB1D18
:1016A0001B781C000F232340083B9B080A4306338A
:1016B0009B00C31804331A60C046BD4603B090BDFA
:1016C00000E100E000ED00E080B582B000AF78609E
:1016D0007B685A1E80235B049A4201D3012310E0E9
:1016E0000A4B7A68013A5A6001235B4203211800D1
:1016F000FFF77CFF054B00229A60044B07221A601B
:1017000000231800BD4602B080BDC04610E000E0D6
:1017100080B584B000AFB9607A600F217B18021CDD
:101720001A70BA687B181B785BB211001800FFF7BB
:101730005DFFC046BD4604B080BD80B582B000AF3D
:101740000200FB1D1A70FB1D1B785BB21800FFF72F
:1017500033FFC046BD4602B080BD80B582B000AF49
:1017600078607B681800FFF7AFFF03001800BD46E4
:1017700002B080BD80B584B000AF78600F23FB1845
:1017800000221A707B6825229B5CDBB2022B08D0FA
:101790007B680422DA637B682422002199540123A8
:1017A00024E07B681B681A687B681B680E218A43EB
:1017B0001A607B681B681A687B681B6801218A4372
:1017C0001A607B685B6C1C221A407B681B6C0121D1
:1017D00091400A005A607B682522012199547B6858
:1017E0002422002199540F23FB181B781800BD46B2
:1017F00004B080BD80B584B000AF78600F217B1845
:1018000000221A707B6825229B5CDBB2022B06D07B
:101810007B680422DA637B1801221A702AE07B6855
:101820001B681A687B681B680E218A431A607B68F4
:101830001B681A687B681B6801218A431A607B68F1
:101840005B6C1C221A407B681B6C012191400A00D2
:101850005A607B682522012199547B68242200214B
:1018600099547B689B6B002B04D07B689B6B7A68D8
:10187000100098470F23FB181B781800BD4604B0D2
:1018800080BD000080B586B000AF7860396000236D
:101890007B610023FB6000233B6155E13B681B68D3
:1018A00001217A6991400A001340FB60FB68002B1C
:1018B00000D146E13B685B6803221340012B05D051
:1018C0003B685B6803221340022B30D17B689B6826
:1018D0003B617B695B0003229A401300DA433B695A
:1018E00013403B613B68DA687B695B009A401300F8
:1018F0003A6913433B617B683A699A607B685B682D
:101900003B6101227B699A401300DA433B69134033
:101910003B613B685B681B0901221A407B699A4066
:1019200013003A6913433B617B683A695A603B682C
:101930005B6803221340032B17D07B68DB683B6195
:101940007B695B0003229A401300DA433B69134032
:101950003B613B689A687B695B009A4013003A6977
:1019600013433B617B683A69DA603B685B6803223A
:101970001340022B23D17B69DA087B68083292007E
:10198000D3583B617B69072213409B000F229A408A
:101990001300DA433B6913403B613B681A697B697A
:1019A00007210B409B009A4013003A6913433B61A7
:1019B0007B69DA087B68083292003969D1507B680C
:1019C0001B683B617B695B0003229A401300DA438A
:1019D0003B6913403B613B685B6803221A407B69AB
:1019E0005B009A4013003A6913433B617B683A6994
:1019F0001A603B685A68C0239B02134000D1A0E0E4
:101A0000574B5A6B564B01210A435A63554A7B691F
:101A10009B0802339B009B583B617B690322134068
:101A20009B000F229A401300DA433B6913403B614D
:101A30007A68A023DB059A421FD07B684A4A93420A
:101A400019D07B68494A934213D07B68484A934235
:101A50000DD07B68474A934207D07B68464A934241
:101A600001D105230AE0062308E0042306E003234E
:101A700004E0022302E0012300E000237A6903214D
:101A80000A40920093403A6913433B6135497B69B0
:101A90009B0802339B003A695A50384B1B683B61E4
:101AA000FB68DA433B6913403B613B685A6880231B
:101AB0005B02134003D03A69FB6813433B612F4B31
:101AC0003A691A602D4B5B683B61FB68DA433B69FE
:101AD00013403B613B685A6880239B02134003D04C
:101AE0003A69FB6813433B61244B3A695A60234BC4
:101AF0009B683B61FB68DA433B6913403B613B6891
:101B00005A6880235B03134003D03A69FB68134390
:101B10003B611A4B3A699A60184BDB683B61FB6882
:101B2000DA433B6913403B613B685A6880239B035F
:101B3000134003D03A69FB6813433B610F4B3A698A
:101B4000DA607B6901337B613B681A687B69DA4044
:101B5000131E00D0A2E6C046C046BD4606B080BDFA
:101B60000010024000000140000400500008005036
:101B7000000C005000100050001C005000040140F8
:101B800080B582B000AF786008001100BB1C021C59
:101B90001A807B1C0A1C1A707B1C1B78002B04D03B
:101BA000BB1C1A887B689A6103E0BB1C1A887B689F
:101BB0009A62C046BD4602B080BD0000B0B58AB092
:101BC00000AF78607B68002B02D1012300F06CFB32
:101BD000C84BDB680C221340FB61C64BDA688023DC
:101BE0005B021340BB617B681B680122134000D17C
:101BF0007DE0FB69082B07D0FB690C2B12D1BA6979
:101C000080235B029A420DD1BA4B1A6880239B0253
:101C1000134000D16AE07B685B68002B66D101232A
:101C200000F042FB7B685A6880235B029A4207D12E
:101C3000B04B1A68AF4B802149020A431A6027E073
:101C40007B685A68A023DB029A420ED1A94B1A681E
:101C5000A84B8021C9020A431A60A64B1A68A54BFB
:101C6000802149020A431A6012E0A24B1A68A14B74
:101C7000A1490A401A609F4B1A6880235B021340F7
:101C8000FB60FB689B4B1A689A4B9C490A401A60A0
:101C90007B685B68002B14D0FFF784FC03007B613A
:101CA00008E0FFF77FFC02007B69D31A642B01D99F
:101CB0000323F9E28F4B1A6880239B021340F0D074
:101CC00015E0FFF76FFC03007B6108E0FFF76AFC9B
:101CD00002007B69D31A642B01D90323E4E2854B0C
:101CE0001A6880239B021340F0D100E0C0467B6855
:101CF0001B680222134000D199E07B68DB687B629D
:101D00007B6A2022134009D07A4B1A68794B202134
:101D10000A431A607B6A202293437B62FB69042B8F
:101D200005D0FB690C2B3ED1BB69002B3BD1714B1D
:101D30001B680422134004D07B6A002B01D10123CD
:101D4000B2E26C4B5B686E4A134019007B681B69FA
:101D50001A02684B0A435A60664B1B680922934378
:101D60001900644B7A6A0A431A6000F0EBFB010029
:101D7000604BDB681B090F221340624AD35C0A00E8
:101D8000DA40614B1A60614B1B6813257C191800FF
:101D9000FFF7C2FB030023707B191B78002B46D092
:101DA0007B191B7880E27B6A002B27D0514B1B6884
:101DB0000922934319004F4B7A6A0A431A60FFF7CE
:101DC000F1FB03007B6108E0FFF7ECFB02007B699D
:101DD000D31A022B01D9032366E2464B1B68042267
:101DE0001340F1D0434B5B68454A134019007B68B0
:101DF0001B691A023F4B0A435A6018E03D4B1A68B0
:101E00003C4B01218A431A60FFF7CCFB03007B6146
:101E100008E0FFF7C7FB02007B69D31A022B01D948
:101E2000032341E2334B1B6804221340F1D17B684A
:101E30001B681022134000D1A1E0FB69002B40D1A8
:101E40002C4B1A6880239B00134005D07B689B694C
:101E5000002B01D1012327E2264B5B682C4A13405B
:101E600019007B681A6A234B0A435A60214B5B684E
:101E70001B02190A7B68DB691A061E4B0A435A606B
:101E80007B681B6A5B0B0133802212029A40194B5C
:101E9000DB681B090F210B401A49CB5CDA401A4B57
:101EA0001A601A4B1B6813257C191800FFF734FBC6
:101EB000030023707B191B78002B60D07B191B78E3
:101EC000F2E17B689B69002B3FD00A4B1A68094BF3
:101ED000802149000A431A60FFF764FB03007B611D
:101EE00018E0FFF75FFB02007B69D31A022B11D9C0
:101EF0000323D9E100100240FFFFFEFFFFFFFBFFBD
:101F0000FFE0FFFF9C7600080C000020100000207E
:101F1000FF1FFFFFC94B1A6880239B001340E0D0CE
:101F2000C64B5B68C64A134019007B681A6AC34BEC
:101F30000A435A60C14B5B681B02190A7B68DB6964
:101F40001A06BE4B0A435A6019E0BC4B1A68BB4BD9
:101F5000BC490A401A60FFF725FB03007B6108E0DB
:101F6000FFF720FB02007B69D31A022B01D9032360
:101F70009AE1B24B1A6880239B001340F0D17B6832
:101F80001B680822134036D07B685B69002B19D090
:101F9000AA4B1A6DA94B01210A431A65FFF702FBF0
:101FA00003007B6108E0FFF7FDFA02007B69D31AAA
:101FB000022B01D9032377E1A04B1B6D02221340B2
:101FC000F1D018E09D4B1A6D9C4B01218A431A6594
:101FD000FFF7E8FA03007B6108E0FFF7E3FA02008D
:101FE0007B69D31A022B01D903235DE1934B1B6D4F
:101FF00002221340F1D17B681B680422134000D1F8
:10200000AEE023203B1800221A708C4B9A6B802381
:102010005B05134009D1894B9A6B884B8021490598
:102020000A439A633B1801221A70874B1A6880236F
:102030005B0013401AD1844B1A68834B80214900FE
:102040000A431A60FFF7AEFA03007B6108E0FFF76E
:10205000A9FA02007B69D31A642B01D9032323E177
:10206000794B1A6880235B001340F0D07B689A6834
:1020700080235B009A4207D1704B1A6D6F4B802111
:1020800049000A431A6531E07B689B68002B0CD13C
:102090006A4B1A6D694B6B490A401A65674B1A6D9A
:1020A000664B6A490A401A6520E07B689A68A0235B
:1020B000DB009A420ED1614B1A6D604B8021C90042
:1020C0000A431A655D4B1A6D5C4B802149000A4337
:1020D0001A650BE0594B1A6D584B5A490A401A655C
:1020E000564B1A6D554B59490A401A657B689B68D7
:1020F000002B15D0FFF756FA03007B6109E0FFF7CC
:1021000051FA02007B69D31A514A934201D9032341
:10211000CAE04A4B1A6D80239B001340EFD014E0B5
:10212000FFF740FA03007B6109E0FFF73BFA02008A
:102130007B69D31A464A934201D90323B4E03F4B4B
:102140001A6D80239B001340EFD12323FB181B78CB
:10215000012B05D1394B9A6B384B3E490A409A63A3
:102160007B685B6A002B00D19DE0FB690C2B00D1E2
:1021700076E07B685B6A022B45D1304B1A682F4BA7
:1021800035490A401A60FFF70DFA03007B6108E049
:10219000FFF708FA02007B69D31A022B01D9032347
:1021A00082E0264B1A6880239B041340F0D1234B16
:1021B000DB682A4A134019007B689A6A7B68DB6AED
:1021C0001A437B681B6B1A431C4B0A43DA601B4B98
:1021D0001A681A4B802149040A431A60FFF7E2F992
:1021E00003007B6108E0FFF7DDF902007B69D31A89
:1021F000022B01D9032357E0104B1A6880239B045C
:102200001340F0D04FE00D4B1A680C4B12490A40B6
:102210001A60FFF7C7F903007B6108E0FFF7C2F916
:1022200002007B69D31A022B01D903233CE0034B44
:102230001A6880239B041340F0D134E00010024060
:10224000FF1FFFFFFFFEFFFF00700040FFFBFFFFCF
:1022500088130000FFFFFFEFFFFFFFFEFFFF02FFFD
:102260007B685B6A012B01D101231DE0104BDB6809
:10227000BB61BA6980235B021A407B689B6A9A4201
:102280000FD1BA69F0239B031A407B68DB6A9A423C
:1022900007D1BA69C0231B041A407B681B6B9A42A2
:1022A00001D0012300E000231800BD460AB0B0BDF4
:1022B00000100240B0B584B000AF786039607B6830
:1022C000002B01D1012328E1964B1B68012213400A
:1022D0003A689A421ED9934B1B6801229343190016
:1022E000904B3A680A431A60FFF75CF90300FB6001
:1022F00009E0FFF757F90200FB68D31A8A4A9342B4
:1023000001D9032309E1874B1B68012213403A6876
:102310009A42EED17B681B680222134009D0834B9E
:10232000DB68F022934319007B689A687F4B0A436D
:10233000DA607B681B680122134000D189E07B686A
:102340005B68022B07D1794B1A6880239B021340EC
:1023500020D10123E1E07B685B68032B07D1734B3D
:102360001A6880239B04134014D10123D5E07B68B5
:102370005B68012B06D16D4B1B680422134009D109
:102380000123CAE0694B1A6880239B00134001D1E6
:102390000123C2E0654BDB680322934319007B688D
:1023A0005A68624B0A43DA60FFF7FCF80300FB60EF
:1023B0007B685B68022B11D109E0FFF7F3F802009C
:1023C000FB68D31A584A934201D90323A5E0574B1F
:1023D000DB680C221340082BEFD13AE07B685B6886
:1023E000032B11D109E0FFF7DDF80200FB68D31AD7
:1023F0004D4A934201D903238FE04C4BDB680C22FA
:1024000013400C2BEFD124E07B685B68012B1BD1C0
:1024100009E0FFF7C7F80200FB68D31A424A93426B
:1024200001D9032379E0414BDB680C221340042BD4
:10243000EFD10EE0FFF7B6F80200FB68D31A3A4A74
:10244000934201D9032368E0384BDB680C22134028
:10245000F0D1344B1B68012213403A689A421ED2D5
:10246000304B1B680122934319002E4B3A680A43F4
:102470001A60FFF797F80300FB6009E0FFF792F896
:102480000200FB68D31A284A934201D9032344E08F
:10249000244B1B68012213403A689A42EED17B68B4
:1024A0001B680422134009D0204BDB68204A1340EC
:1024B00019007B68DA681D4B0A43DA607B681B6889
:1024C000082213400AD0194BDB681A4A134019003E
:1024D0007B681B69DA00154B0A43DA6000F032F8BA
:1024E0000100124BDB681B090F221340124AD35C18
:1024F0000A00DA40114B1A60114B1B680B257C193E
:102500001800FFF709F8030023707B191B78002BD4
:1025100002D07B191B7800E000231800BD4604B0F0
:10252000B0BDC046002002408813000000100240E9
:10253000FFF8FFFFFFC7FFFF9C7600080C0000209C
:1025400010000020B0B58EB000AF4C4BDB68FB62D2
:10255000FA6A0C2313400C2B14D000D97BE0042B17
:1025600002D0082B0BD076E0444B1B68102213409E
:1025700002D0434B3B637CE0424B3B6379E0424BF0
:102580003B6376E0FB6A9A0C0F231A403F4B9B5C3F
:10259000BB62FB6A9A0D0323134001337B62374B06
:1025A000DA6880235B0213401AD0BB6ABB61002348
:1025B000FB61354A0023B869F969FDF77BFF02002A
:1025C0000B00100019007B6A3B6100237B613A69B4
:1025D0007B69FDF74FFF02000B0013007B6337E0C0
:1025E000264B1B68102213401AD0BB6ABB60002325
:1025F000FB60234A0023B868F968FDF75BFF02001F
:102600000B00100019007B6A3B6000237B603A6876
:102610007B68FDF72FFF02000B0013007B6317E0C0
:10262000BB6A180000231900164A0023FDF742FF79
:1026300002000B00100019007B6A1C0000231D0023
:1026400022002B00FDF716FF02000B0013007B6336
:102650007B6B3B630DE0094B5B685B0B0722134010
:102660003B623B6A0133802212029A4013003B63B3
:10267000C0463B6B1800BD460EB0B0BD0010024016
:1026800000093D000024F40000127A00B47600082E
:1026900080B500AF024B1B681800BD4680BDC04628
:1026A0000C00002080B500AFFFF7F2FF0100064BE1
:1026B000DB681B0A07221340044AD35CD9400B0095
:1026C0001800BD4680BDC04600100240AC76000830
:1026D00080B500AFFFF7DCFF0100064BDB68DB0ACB
:1026E00007221340044AD35CD9400B001800BD46B2
:1026F00080BDC04600100240AC76000880B586B0B0
:1027000000AF786017203B1800221A707B681B68A6
:102710002022134000D1C2E0914B9A6B80235B05CD
:10272000134009D18E4B9A6B8D4B802149050A438A
:102730009A633B1801221A708A4B1A6880235B0047
:1027400013401AD1874B1A68864B802149000A43EF
:102750001A60FEF727FF03003B6108E0FEF722FF47
:1027600002003B69D31A642B01D90323F3E07D4BAC
:102770001A6880235B001340F0D0794B1A68C0239D
:102780009B031340FB607B685A68C0239B03134084
:10279000FA689A4213D07B685A68C0239B021A4099
:1027A000C0239B029A420AD16D4B1A6880239B0278
:1027B0001A4080239B029A4201D10123CBE0684B4F
:1027C0001A6DC0239B021340FB60FB68002B3BD0BB
:1027D0007B685A68C0239B021340FA689A4233D040
:1027E0007B681B68202213402ED05D4B1B6D5E4A18
:1027F0001340FB605A4B1A6D594B802109030A4361
:102800001A65574B1A6D564B58490A401A65544B76
:10281000FA681A65FA6880235B00134014D0FEF74B
:10282000C1FE03003B6109E0FEF7BCFE02003B690C
:10283000D31A4F4A934201D903238CE0484B1A6DB7
:1028400080239B001340EFD07B685A68C0239B0213
:102850001A40C0239B029A420CD1414B1B68454A47
:10286000134019007B685A68C0239B031A403C4BF5
:102870000A431A603A4B196D7B685A68C0239B0261
:102880001A40374B0A431A651723FB181B78012B94
:1028900005D1334B9A6B324B37490A409A637B68B8
:1028A0001B680122134009D02D4BDB6C032293439C
:1028B00019007B689A682A4B0A43DA647B681B68B4
:1028C0000222134009D0264BDB6C0C2293431900E3
:1028D0007B68DA68224B0A43DA647B681B6804224F
:1028E000134009D01E4BDB6C244A134019007B684F
:1028F0001A691B4B0A43DA647B681B680822134081
:1029000009D0174BDB6C1E4A134019007B685A69CB
:10291000134B0A43DA647B681A6880235B00134018
:1029200009D00F4BDB6C104A134019007B689A6981
:102930000B4B0A43DA647B681B688022134009D082
:10294000074BDB6C0F4A134019007B68DA69044BB4
:102950000A43DA6400231800BD4606B080BDC046B5
:102960000010024000700040FFFFFCFFFFFFF7FF78
:1029700088130000FFFFCFFFFFFFFFEFFFF3FFFF14
:10298000FFCFFFFFFFFFF3FF80B582B000AF78609D
:102990007B68002B01D101238EE07B6821229B5CA8
:1029A000DBB2002B07D17B682022002199547B6881
:1029B0001800FEF763FB7B682122022199547B6893
:1029C0001B68CA225A627B681B6853225A627B6862
:1029D000180000F0BAFA031E09D07B681B68FF22BA
:1029E0005A627B68212204219954012364E07B68A8
:1029F0001B689A687B681B6831490A409A607B684B
:102A00001B6899687B685A687B681B691A437B68F6
:102A10009B691A437B681B680A439A607B681B6842
:102A20007A68D2681A617B681B6819697B689B6841
:102A30001A047B681B680A431A617B681B68DA68A2
:102A40007B681B6880218A43DA607B681B68DA6CCC
:102A50007B681B6803218A43DA647B681B68D96C36
:102A60007B68DA697B685B691A437B681B680A4389
:102A7000DA647B681B689B682022134013D17B6853
:102A8000180000F03BFA031E0DD07B681B68FF2284
:102A90005A627B682122042199547B6820220021FC
:102AA0009954012308E07B681B68FF225A627B6807
:102AB00021220121995400231800BD4602B080BD97
:102AC000BFFF8FFF90B587B000AFF860B9607A6044
:102AD000FB6820229B5C012B01D10223ADE0FB6847
:102AE000202201219954FB682122022199547B68FC
:102AF000002B25D1FB681B689B684022134002D144
:102B0000BB680022DA70BB681B78180000F047FA37
:102B100003001C04BB685B78180000F040FA030057
:102B20001B021C43BB689B78180000F038FA0300B6
:102B300022001A43BB68DB781B0413437B6117E058
:102B4000FB681B689B684022134002D1BB680022CF
:102B5000DA70BB681B781A04BB685B781B021343EE
:102B6000BA6892781A43BB68DB781B0413437B6115
:102B7000FB681B68CA225A62FB681B6853225A62B0
:102B8000FB68180000F0E1F9031E0DD0FB681B681C
:102B9000FF225A62FB68212204219954FB682022FB
:102BA00000219954012348E0FB681B687A69254994
:102BB0000A401A60FB681B689A68FB681B68224918
:102BC0000A409A60FB681B689968BB68DA68BB6852
:102BD0001B691A43FB681B680A439A60FB681B6801
:102BE000DA68FB681B6880218A43DA60FB681B682F
:102BF0009B682022134013D1FB68180000F07EF977
:102C0000031E0DD0FB681B68FF225A62FB6821225D
:102C100004219954FB6820220021995401230CE0DF
:102C2000FB681B68FF225A62FB682122012199542C
:102C3000FB6820220021995400231800BD4607B0EC
:102C400090BDC0467F7F7F00FFFFFBFF80B586B051
:102C500000AFF860B9607A60FB681B689A6ABB686D
:102C60005A60FB681B681B695B045A0CBB689A605E
:102C7000FB681B681B68224A13407B617B691B0C45
:102C8000DBB23F221340DAB2BB681A707B691B0AC1
:102C9000DBB27F221340DAB2BB685A707B69DBB2C9
:102CA0007F221340DAB2BB689A707B691B0CDBB2DF
:102CB00040221340DAB2BB68DA707B68002B1AD16D
:102CC000BB681B78180000F092F903001A00BB687B
:102CD0001A70BB685B78180000F089F903001A00CD
:102CE000BB685A70BB689B78180000F080F903003D
:102CF0001A00BB689A7000231800BD4606B080BD5C
:102D00007F7F7F0090B587B000AFF860B9607A60D0
:102D1000FB6820229B5C012B01D1022399E0FB6818
:102D2000202201219954FB682122022199547B68B9
:102D3000002B0ED1BB685B781A001023134008D01B
:102D4000BB685B7810229343DBB20A33DAB2BB680C
:102D50005A707B68002B1CD1BB68DB78180000F030
:102D60001EF903001C04BB685B78180000F017F91B
:102D700003001B021C43BB689B78180000F00FF98E
:102D8000030022001A43BB681B785B0313437B617B
:102D90000EE0BB68DB781A04BB685B781B02134348
:102DA000BA6892781A43BB681B785B0313437B6154
:102DB000FB681B68CA225A62FB681B6853225A626E
:102DC000FB68180000F0C1F8031E0DD0FB681B68FB
:102DD000FF225A62FB68212204219954FB682022B9
:102DE00000219954012334E0FB681B687A691B4970
:102DF0000A405A60FB681B68DA68FB681B68802120
:102E00008A43DA60FB681B689B682022134013D159
:102E1000FB68180000F072F8031E0DD0FB681B68F9
:102E2000FF225A62FB68212204219954FB68202268
:102E30000021995401230CE0FB681B68FF225A62B1
:102E4000FB68212201219954FB682022002199541A
:102E500000231800BD4607B090BDC0463FFFFF00ED
:102E600080B586B000AFF860B9607A60FB681B6817
:102E70005B68214A13407B617B691B0CDAB2BB683B
:102E8000DA707B691B0ADBB21F221340DAB2BB681F
:102E90005A707B69DBB23F221340DAB2BB689A708A
:102EA0007B695B0BDBB207221340DAB2BB681A7096
:102EB0007B68002B1AD1BB68DB78180000F097F80C
:102EC00003001A00BB68DA70BB685B78180000F07A
:102ED0008EF803001A00BB685A70BB689B78180014
:102EE00000F085F803001A00BB689A7000231800F0
:102EF000BD4606B080BDC0463FFFFF0080B584B030
:102F000000AF78607B681B68DA687B681B68A0216B
:102F10008A43DA60FEF746FB0300FB600AE0FEF737
:102F200041FB0200FB68D21AFA239B009A4201D9A6
:102F3000032306E07B681B68DB6820221340EED089
:102F400000231800BD4604B080BD80B584B000AF3A
:102F500078607B681B68DB68402213401AD17B686D
:102F60001B6801225242DA60FEF71CFB0300FB6083
:102F70000AE0FEF717FB0200FB68D21AFA239B0057
:102F80009A4201D9032306E07B681B68DB68402274
:102F90001340EED000231800BD4604B080BD80B5BC
:102FA00084B000AF0200FB1D1A700023FB600B23EE
:102FB000FB18FA1D12781A7008E0FB680133FB60F9
:102FC0000B22BB18BA1812780A3A1A700B217B1818
:102FD0001B78092BF1D8FB68DBB21B01DAB27B1836
:102FE0001B781343DBB21800BD4604B080BD80B52A
:102FF00084B000AF0200FB1D1A70FB1D1B781B097B
:10300000DBB21A0013009B009B185B00FB60FB689F
:10301000DAB2FB1D1B780F210B40DBB2D318DBB2F9
:103020001800BD4604B080BD80B582B000AF7860A6
:103030007B68002B01D1012344E07B689B6F002B50
:1030400007D17B687422002199547B681800FEF731
:103050002DF87B6824229A677B681B681A687B6856
:103060001B6801218A431A607B68180000F036FC57
:103070000300012B01D1012324E07B685B6A002B54
:1030800003D07B68180000F0C9FE7B681B685A6893
:103090007B681B680D490A405A607B681B689A6808
:1030A0007B681B682A218A439A607B681B681A68C0
:1030B0007B681B6801210A431A607B68180000F0D6
:1030C00061FF03001800BD4602B080BDFFB7FFFFDF
:1030D00080B58AB002AFF860B9603B60BB1D1A8052
:1030E000FB689B6F202B00D095E0BB68002B03D0C2
:1030F000BB1D1B88002B01D101238DE0FB689A6862
:1031000080235B019A4209D1FB681B69002B05D122
:10311000BB680122134001D001237DE0FB687422CB
:103120009B5C012B01D1022376E0FB687422012114
:103130009954FB68802200219950FB6821229A67EC
:10314000FEF730FA03007B61FB68BA1D502112883C
:103150005A52FB68BA1D522112885A52FB689A686B
:1031600080235B019A4208D1FB681B69002B04D1C4
:103170000023FB61BB68BB6103E0BB68FB6100230C
:10318000BB61FB687422002199542CE07A69F868CD
:103190003B68009313000022802100F03BFF031ED8
:1031A00001D0032338E0FB69002B0BD1BB691B88DE
:1031B0001A00FB681B68D205D20D9A62BB69023304
:1031C000BB6107E0FB691A78FB681B689A62FB69C0
:1031D0000133FB61FB6852229B5A9BB2013B99B2BF
:1031E000FB6852229952FB6852229B5A9BB2002BD9
:1031F000CCD17A69F8683B68009313000022402123
:1032000000F008FF031E01D0032305E0FB68202225
:103210009A67002300E002231800BD4608B080BD75
:1032200080B588B000AFF860B960BB1D1A80FB683C
:10323000DB6F202B55D1BB68002B03D0BB1D1B8837
:10324000002B01D101234DE0FB689A6880235B01CC
:103250009A4209D1FB681B69002B05D1BB6801228A
:10326000134001D001233DE0FB6874229B5C012BDD
:1032700001D1022336E0FB68742201219954FB68D6
:1032800000221A66FB681B68184A934220D0FB682C
:103290001B685A6880231B04134019D0EFF3108376
:1032A0003B613B69FB6101237B617B6983F3108890
:1032B000C046FB681B681A68FB681B688021C9044C
:1032C0000A431A60FB69BB61BB6983F31088C0467F
:1032D000BB1D1A88B968FB68180000F05FFF030087
:1032E00000E002231800BD4608B080BD0048004041
:1032F00090B5ABB000AF78607B681B68DB69A42237
:10330000B9180B607B681B681B68A02039180B601C
:103310007B681B689B689C2179180B601100BB18A7
:103320001B68994A13409822BC182360BB181B687D
:10333000002B14D17B181B68202213400FD03B18A0
:103340001B68202213400AD07B685B6E002B00D1E3
:1033500098E27B685B6E7A681000984792E2982347
:10336000FB181B68002B00D114E19C23FB181B6881
:103370000122134006D1A023FB181B68834A134087
:1033800000D107E1A423FB181B680122134012D0CF
:10339000A023FB181A6880235B0013400BD07B68C6
:1033A0001B6801221A627B6880229B5801221A4303
:1033B0007B6880215A50A423FB181B68022213400B
:1033C00011D09C23FB181B68012213400BD07B6893
:1033D0001B6802221A627B6880229B5804221A43CF
:1033E0007B6880215A50A423FB181B6804221340D9
:1033F00011D09C23FB181B68012213400BD07B6863
:103400001B6804221A627B6880229B5802221A439E
:103410007B6880215A50A423FB181B6808221340A4
:1034200017D0A023FB181B682022134005D19C2332
:10343000FB181B68012213400BD07B681B68082215
:103440001A627B6880229B5808221A437B6880217D
:103450005A50A423FB181A6880231B01134013D071
:10346000A023FB181A688023DB0413400CD07B6870
:103470001B68802212011A627B6880229B582022DE
:103480001A437B6880215A507B6880229B58002B0E
:1034900000D1F9E1A423FB181B68202213400ED0B1
:1034A000A023FB181B682022134008D07B685B6EAA
:1034B000002B04D07B685B6E7A68100098477B68AD
:1034C00080229B5894217A1813607B681B689B6844
:1034D00040221340402B04D07B181B682822134045
:1034E00047D07B68180000F009FF7B681B689B6869
:1034F00040221340402B37D1EFF310833B663B6EE5
:1035000090203A18136001237B667B6E83F310884A
:10351000C0467B681B689A687B681B6840218A43A9
:103520009A603B181B68BB66BB6E83F31088C0466D
:103530007B681B6F002B12D07B681B6F144A9A6349
:103540007B681B6F1800FEF755F9031E1AD07B68C5
:103550001B6F9A6B7B681B6F1800904712E07B68AB
:10356000180000F0A7F90DE07B68180000F0A2F940
:1035700008E07B68180000F09DF97B68802200213C
:10358000995081E1C0467FE10F080000200100044E
:10359000C14300087B681B6E012B00D033E1A423DC
:1035A000FB181B681022134000D12CE1A023FB184C
:1035B0001B681022134000D125E17B681B68102294
:1035C0001A627B681B689B6840221340402B00D026
:1035D0009DE07B681B6F1B685A687E217B181A80F0
:1035E0007B181B88002B00D150E17B6858229B5A26
:1035F0007A1812889A4200D348E17B687A185A21D7
:1036000012885A527B681B6F1B681B68202213406C
:103610006ED1EFF310833B633B6BBB6701237B638E
:103620007B6B83F31088C0467B681B681A687B68D5
:103630001B689A490A401A60BB6FBB63BB6B83F37C
:103640001088C046EFF31083FB63FB6B7B6701239D
:103650003B643B6C83F31088C0467B681B689A68A8
:103660007B681B6801218A439A607B6F7B647B6C5B
:1036700083F31088C046EFF31083BB64BB6C3B67D9
:103680000123FB64FB6C83F31088C0467B681B68D6
:103690009A687B681B6840218A439A603B6F3B6550
:1036A0003B6D83F31088C0467B682022DA677B6815
:1036B00000221A66EFF310837B657B6DFB660123A6
:1036C000BB65BB6D83F31088C0467B681B681A68B6
:1036D0007B681B6810218A431A60FB6EFB65FB6DDB
:1036E00083F31088C0467B681B6F1800FEF742F812
:1036F0007B6858229A5A7B685A215B5A9BB2D31A2C
:103700009AB27B681100180000F0DCF8BEE07B681C
:103710005822995A7B685A229B5A9AB28E203B189B
:103720008A1A1A807B685A229B5A9BB2002B00D1BE
:10373000AEE03B181B88002B00D1A9E0EFF310830B
:10374000FB60FB6888243A19136001233B613B69E5
:1037500083F31088C0467B681B681A687B681B6807
:103760004F490A401A603B191B687B617B6983F3F0
:103770001088C046EFF31083BB61BB6984243A19FB
:1037800013600123FB61FB6983F31088C0467B68EB
:103790001B689A687B681B6801218A439A603B1901
:1037A0001B683B623B6A83F31088C0467B6820221B
:1037B000DA677B6800221A667B6800225A66EFF39C
:1037C00010837B627B6A80243A1913600123BB62F9
:1037D000BB6A83F31088C0467B681B681A687B68E5
:1037E0001B6810218A431A603B191B68FB62FB6A45
:1037F00083F31088C0463B181A887B6811001800B4
:1038000000F060F844E0A423FB181A6880235B03EF
:10381000134010D09C23FB181A688023DB0313404D
:1038200009D07B681B68802252031A627B681800EB
:1038300000F070FF2FE0A423FB181B6880221340C8
:103840000FD0A023FB181B688022134009D07B688F
:103850009B6E002B1ED07B689B6E7A681000984789
:1038600018E0A423FB181B684022134013D0A023A8
:10387000FB181B68402213400DD07B68180000F035
:10388000B6FD08E0C04606E0C04604E0C04602E0DF
:10389000C04600E0C046BD462BB090BDFFFEFFFF16
:1038A000DFFEFFFF80B582B000AF7860C046BD4646
:1038B00002B080BD80B582B000AF7860C046BD4622
:1038C00002B080BD80B582B000AF78600A00BB1C3A
:1038D0001A80C046BD4602B080BD0000B0B58EB0B3
:1038E00000AFF8611A2318229B18DB1900221A7006
:1038F000FB699A68FB691B691A43FB695B691A4398
:10390000FB69DB6913437B63FB691B681B68C34A64
:1039100013401900FB691B687A6B0A431A60FB6944
:103920001B685B68BE4A13401900FB69DA68FB69D3
:103930001B680A435A60FB699B697B63FB691B68D0
:10394000B84A934204D0FB691B6A7A6B13437B63CA
:10395000FB691B689B68B44A13401900FB691B682C
:103960007A6B0A439A60FB691B68B04A934231D173
:10397000AF4BDB6C03221340032B1DD023D8022B4B
:103980000CD020D8002B02D0012B0ED01BE01B2323
:1039900018229B18DB1901221A70B4E01B2318228D
:1039A0009B18DB1902221A70ADE01B2318229B180A
:1039B000DB1904221A70A6E01B2318229B18DB19BE
:1039C00008221A709FE01B2318229B18DB19102273
:1039D0001A7098E0FB691B68964A934231D1944B68
:1039E000DB6C0C2213400C2B1DD023D8082B0CD0E1
:1039F00020D8002B02D0042B0ED01BE01B23182252
:103A00009B18DB1900221A707DE01B2318229B18DB
:103A1000DB1902221A7076E01B2318229B18DB198F
:103A200004221A706FE01B2318229B18DB1908224E
:103A30001A7068E01B2318229B18DB1910221A70D9
:103A400061E0FB691B687C4A934206D11B23182264
:103A50009B18DB1900221A7055E0FB691B68774A36
:103A6000934206D11B2318229B18DB1900221A70DF
:103A700049E0FB691B686B4A93423ED16C4BDA6CA0
:103A8000C0231B011340C0221201934227D0C02241
:103A9000120193422AD880221201934211D080222F
:103AA0001201934222D8002B04D08022D2009342EC
:103AB0000ED01BE01B2318229B18DB1900221A7062
:103AC00021E01B2318229B18DB1902221A701AE02E
:103AD0001B2318229B18DB1904221A7013E01B23E6
:103AE00018229B18DB1908221A700CE01B231822DD
:103AF0009B18DB1910221A7005E01B2318229B1853
:103B0000DB1910221A70FB691B68464A934200D0E9
:103B10009AE01B2318229B18DB191B78082B1DD059
:103B200020DC042B15D01DDC002B02D0022B05D08D
:103B300018E0FEF7B7FD0300FB621CE03C4B1B687E
:103B40001022134002D03E4BFB6214E03D4BFB625F
:103B500011E0FEF7F7FC0300FB620CE080231B0280
:103B6000FB6208E00023FB621A2318229B18DB1972
:103B700001221A70C046FB6A002B00D134E1FB69B8
:103B80005A6813005B009B18FA6A9A4205D3FB69D6
:103B90005B681B03FA6A9A4206D91A2318229B18FB
:103BA000DB1901221A701FE1FB6A3B6100237B6174
:103BB00039697A690B001B0E100005021D430B00CA
:103BC0001C02FB695B685B08BB600023FB60B86894
:103BD000F96800196941FB695B683B6000237B6001
:103BE0003A687B68FCF746FC02000B001300BB62DE
:103BF000BA6AC0239B009A4209D3BA6A80235B0346
:103C00009A4204D2FB691B68BA6ADA60ECE01A23B4
:103C100018229B18DB1901221A70E5E0F369FFEF07
:103C2000FFCFFFFF00480040FFF4FFFF00380140D6
:103C30000010024000440040004C00400050004092
:103C400000093D000024F400FB69DA6980231B02AF
:103C50009A4200D071E01B2318229B18DB191B78B5
:103C6000082B22D89A00684BD3181B689F46FEF792
:103C700019FD0300FB6221E0FEF72AFD0300FB6251
:103C80001CE0624B1B681022134002D0604BFB62A9
:103C900014E0604BFB6211E0FEF754FC0300FB6292
:103CA0000CE080231B02FB6208E00023FB621A2366
:103CB00018229B18DB1901221A70C046FB6A002BE0
:103CC00000D191E0FB6A5A00FB695B685B08D2187F
:103CD000FB695B6819001000FCF732FA03009BB225
:103CE000BB62BB6A0F2B21D9BA6A80235B029A425E
:103CF0001CD2BB6A9AB20E2018240319DB190F21BB
:103D00008A431A80BB6A5B089BB20722134099B2B0
:103D10000319DB190219D21912880A431A80FB69A8
:103D20001B680219D2191288DA605DE01A23182282
:103D30009B18DB1901221A7056E01B2318229B18CE
:103D4000DB191B78082B22D89A00334BD3181B6839
:103D50009F46FEF7A7FC0300FB6221E0FEF7B8FCDC
:103D60000300FB621CE0294B1B681022134002D0A9
:103D7000274BFB6214E0274BFB6211E0FEF7E2FBEE
:103D80000300FB620CE080231B02FB6208E00023BF
:103D9000FB621A2318229B18DB1901221A70C046F5
:103DA000FB6A002B20D0FB695B685A08FB6AD218BB
:103DB000FB695B6819001000FCF7C2F903009BB2B5
:103DC000BB62BB6A0F2B09D9BA6A80235B029A4295
:103DD00004D2FB691B68BA6ADA6005E01A2318226C
:103DE0009B18DB1901221A70FB6900225A66FB69D5
:103DF00000229A661A2318229B18DB191B781800D8
:103E0000BD460EB0B0BDC046C076000800100240EE
:103E100000093D000024F400E476000880B582B07B
:103E200000AF78607B685B6A012213400BD07B682F
:103E30001B685B684A4A134019007B689A6A7B6872
:103E40001B680A435A607B685B6A022213400BD0EE
:103E50007B681B685B68434A134019007B68DA6A19
:103E60007B681B680A435A607B685B6A04221340C4
:103E70000BD07B681B685B683B4A134019007B686A
:103E80001A6B7B681B680A435A607B685B6A08226E
:103E900013400BD07B681B685B68344A13401900E1
:103EA0007B685A6B7B681B680A435A607B685B6A55
:103EB000102213400BD07B681B689B682C4A134070
:103EC00019007B689A6B7B681B680A439A607B6861
:103ED0005B6A202213400BD07B681B689B68254AD5
:103EE000134019007B68DA6B7B681B680A439A6091
:103EF0007B685B6A402213401DD07B681B685B684F
:103F00001D4A134019007B681A6C7B681B680A43C2
:103F10005A607B681A6C80235B039A420BD17B68E2
:103F20001B685B68154A134019007B685A6C7B68F4
:103F30001B680A435A607B685B6A802213400BD07F
:103F40007B681B685B680E4A134019007B689A6C9B
:103F50007B681B680A435A60C046BD4602B080BDFC
:103F6000FFFFFDFFFFFFFEFFFFFFFBFFFF7FFFFFE8
:103F7000FFEFFFFFFFDFFFFFFFFFEFFFFFFF9FFFF1
:103F8000FFFFF7FF80B586B002AF78607B688022C4
:103F900000219950FDF706FB0300FB607B681B685E
:103FA0001B6808221340082B0CD1FB688022910368
:103FB0007868174A0092002200F02CF8031E01D006
:103FC000032321E07B681B681B6804221340042B39
:103FD0000CD1FB688022D10378680D4A0092002240
:103FE00000F018F8031E01D003230DE07B682022A7
:103FF0009A677B682022DA677B6800221A667B68F2
:1040000074220021995400231800BD4604B080BDDD
:10401000FFFFFF0180B594B000AFF860B9603B606E
:10402000FB1D1A70A3E0BB6D013300D19FE0FDF7CB
:10403000B9FA02003B68D31ABA6D9A4202D3BB6D3B
:10404000002B3DD1EFF31083BB62BB6A7B6401237D
:10405000FB62FB6A83F31088C046FB681B681A6822
:10406000FB681B684C490A401A607B6C3B633B6BE6
:1040700083F31088C046EFF310837B637B6B3B6454
:104080000123BB63BB6B83F31088C046FB681B68CE
:104090009A68FB681B6801218A439A603B6CFB634A
:1040A000FB6B83F31088C046FB6820229A67FB688D
:1040B0002022DA67FB68742200219954032367E009
:1040C000FB681B681B680422134050D0FB681B6808
:1040D000DA6980231B011A4080231B019A4246D1D2
:1040E000FB681B68802212011A62EFF310833B61A8
:1040F0003B69FB6401237B617B6983F31088C046C5
:10410000FB681B681A68FB681B6823490A401A6031
:10411000FB6CBB61BB6983F31088C046EFF310836F
:10412000FB61FB69BB6401233B623B6A83F310883C
:10413000C046FB681B689A68FB681B6801218A43BC
:104140009A60BB6C7B627B6A83F31088C046FB6815
:1041500020229A67FB682022DA67FB6880222021F0
:104160009950FB68742200219954032310E0FB68E6
:104170001B68DB69BA681340BA68D31A5A425341C4
:10418000DBB21A00FB1D1B789A4200D14BE70023DB
:104190001800BD4614B080BD5FFEFFFF80B58CB037
:1041A00000AFF860B960BB1D1A80FB68BA685A6539
:1041B000FB68BA1D582112885A52FB68BA1D5A2151
:1041C00012885A52FB6800225A66FB689A6880235C
:1041D0005B019A420DD1FB681B69002B04D1FB687F
:1041E0005C22434999522EE0FB685C22FF219952E0
:1041F00029E0FB689B68002B0DD1FB681B69002B35
:1042000004D1FB685C22FF2199521CE0FB685C2210
:104210007F21995217E0FB689A6880235B059A42D8
:104220000DD1FB681B69002B04D1FB685C227F2148
:10423000995208E0FB685C223F21995203E0FB6839
:104240005C2200219952FB68802200219950FB6872
:104250002222DA67EFF31083FB61FB69FB62012323
:104260003B623B6A83F31088C046FB681B689A6810
:10427000FB681B6801210A439A60FB6A7B627B6AC8
:1042800083F31088C046FB689A6880235B019A42DA
:1042900007D1FB681B69002B03D1FB68154A5A66DE
:1042A00002E0FB68144A5A66FB68742200219954A4
:1042B000EFF310833B613B69BB6201237B617B6948
:1042C00083F31088C046FB681B681A68FB681B688C
:1042D000902149000A431A60BB6ABB61BB6983F342
:1042E0001088C04600231800BD460CB080BDC046F3
:1042F000FF010000AD4500084544000880B58EB0C0
:1043000000AF7860EFF310837B617B697B630123EF
:10431000BB61BB6983F31088C0467B681B681A6861
:104320007B681B6825490A401A607B6BFB61FB694F
:1043300083F31088C046EFF310833B623B6A3B6314
:1043400001237B627B6A83F31088C0467B681B680D
:104350009A687B681B6801218A439A603B6BBB6249
:10436000BB6A83F31088C0467B681B6E012B18D193
:10437000EFF31083BB60BB68FB620123FB60FB684B
:1043800083F31088C0467B681B681A687B681B68CB
:1043900010218A431A60FB6A3B613B6983F31088F2
:1043A000C0467B682022DA677B6800221A667B6839
:1043B00000225A66C046BD460EB080BDDFFEFFFF3C
:1043C00080B584B000AF78607B689B6AFB60FB6857
:1043D0005A2200219952FB68522200219952FB680F
:1043E0001800FFF767FAC046BD4604B080BD80B52F
:1043F00086B000AF7860EFF31083BB60BB687B6171
:104400000123FB60FB6883F31088C0467B681B6850
:104410001A687B681B6840218A431A607B693B618C
:104420003B6983F31088C0467B6820229A677B68CB
:1044300000229A667B681800FFF734FAC046BD4632
:1044400006B080BD80B590B000AF78603E203B18CC
:104450007A685C21525A1A807B68DB6F222B00D06D
:1044600095E07B681B685A6A3C217B181A807B1890
:104470001B88DAB23B181B88D9B27B685B6D0A4097
:10448000D2B21A707B685B6D5A1C7B685A657B6878
:104490005A229B5A9BB2013B99B27B685A2299528D
:1044A0007B685A229B5A9BB2002B78D1EFF3108382
:1044B000BB61BB69BB630123FB61FB6983F31088AC
:1044C000C0467B681B681A687B681B6836490A40CF
:1044D0001A60BB6B3B623B6A83F31088C046EFF304
:1044E00010837B627B6A7B630123BB62BB6A83F3BD
:1044F0001088C0467B681B689A687B681B6801212E
:104500008A439A607B6BFB62FB6A83F31088C04628
:104510007B682022DA677B6800225A667B681B6E04
:10452000012B2FD17B6800221A66EFF31083FB600A
:10453000FB683B6301233B613B6983F31088C04602
:104540007B681B681A687B681B6810218A431A60A5
:104550003B6B7B617B6983F31088C0467B681B687B
:10456000DB6910221340102B03D17B681B681022DB
:104570001A627B6858229A5A7B6811001800FFF76C
:10458000A1F90CE07B681800FCF742FF07E07B68AC
:104590001B689A697B681B6808210A439A61C046B8
:1045A000BD4610B080BDC046DFFEFFFF80B590B0B5
:1045B00000AF78603E203B187A685C21525A1A801E
:1045C0007B68DB6F222B00D095E07B681B685A6A02
:1045D0003C217B181A807B685B6DBB637B183A18A3
:1045E0001B88128813409AB2BB6B1A807B685B6D84
:1045F0009A1C7B685A657B685A229B5A9BB2013B86
:1046000099B27B685A2299527B685A229B5A9BB274
:10461000002B78D1EFF310837B617B697B630123EF
:10462000BB61BB6983F31088C0467B681B681A684E
:104630007B681B6836490A401A607B6BFB61FB692B
:1046400083F31088C046EFF310833B623B6A3B6301
:1046500001237B627B6A83F31088C0467B681B68FA
:104660009A687B681B6801218A439A603B6BBB6236
:10467000BB6A83F31088C0467B682022DA677B68B8
:1046800000225A667B681B6E012B2FD17B680022AB
:104690001A66EFF31083BB60BB68FB620123FB600B
:1046A000FB6883F31088C0467B681B681A687B68C8
:1046B0001B6810218A431A60FB6A3B613B6983F3E4
:1046C0001088C0467B681B68DB6910221340102BE2
:1046D00003D17B681B6810221A627B6858229A5AA1
:1046E0007B6811001800FFF7EDF80CE07B681800FC
:1046F000FCF78EFE07E07B681B689A697B681B6885
:1047000008210A439A61C046BD4610B080BDC0462C
:10471000DFFEFFFF80B582B000AF7860C046BD46C7
:1047200002B080BD10B50A22002100F021FE10BDAC
:10473000014B18687047C0461800002070B500266D
:104740000C4D0D4C641BA410A64209D1002602F0AA
:104750003BFF0A4D0A4C641BA410A64205D170BD54
:10476000B300EB5898470136EEE7B300EB58984793
:104770000136F2E7D07A0008D07A0008D07A000833
:10478000D47A00080B4B70B51D680400EB6B002B4E
:104790000AD1242000F016F9021EE86304D1322168
:1047A000054B064801F044F8E96B200000F008F8DA
:1047B00070BDC046180000200C7700082377000861
:1047C000F7B50C00060001F0BBF821000500300031
:1047D00001F0BAF8774A436904009F189B0706D195
:1047E00064213800FBF71CFE0123002906D1C821F3
:1047F00038004900FBF714FE4B424B4130214B433C
:104800006D495B18019300F079FE00F087FE6B4B59
:104810001B68002B2CD06B68BB421BD10ACE2E68C4
:10482000286A6A6A002E1DD19A4202DC29D1884288
:1048300027D9EA6C0126A86C9A4203DC01D1884290
:1048400000D8002626629A421DDC01D188421AD87F
:10485000AF6A19E0380000F097FD0028DED101238F
:104860005B4205E09A4202DC04D1884202D900236F
:104870002362EDE7EA6C9A4203DCF8D1AB6C8B4221
:10488000F5D9012323622F6DE12138000901FBF7DF
:10489000C7FD0E003C213000FBF7C2FD236830004D
:1048A0005D1A25603C21FBF7D5FCE1216368090115
:1048B0001E1A66603800FBF7CDFCA3681B1AA360C4
:1048C0003B2D2ADD013666603C3D256062683B2A4F
:1048D00029DD0133A3603C3A6260A268172A31DD0A
:1048E000E3690133E361A3690133062B21DCA36192
:1048F000183AE368A260226901980133E3609100ED
:1049000009588B4205DD5B1AE360531C0B2A12D059
:10491000236100F0FBFD2000FEBD002DD6DA013E34
:1049200066603C35D1E7002AD7DA013BA3603C3210
:10493000D2E70023DBE70022636922610133636170
:10494000E261E6E7002AE4DAE369013BE361A36997
:10495000013B11D4A361E3681832591EE160A260E3
:104960000029D6D12369013B08D423612369019A28
:104970009B009B58E360CCE70623EBE70B236569BC
:1049800023616B1E63610E4BED18AB0706D16421EA
:104990002800FBF745FD0123002906D1C821280086
:1049A0004900FBF73DFD4B424B416D33FF33E36163
:1049B000DCE7C0466C070000E07700084C020020EE
:1049C0006B07000010B5034B0100186800F024FBD2
:1049D00010BDC0461800002010B5034B0100186838
:1049E00000F0AEFA10BDC04618000020002310B53C
:1049F0009A4200D110BDCC5CC4540133F8E70300E7
:104A00008218934200D1704719700133F9E7000012
:104A1000F7B5016804003B290BD93C22684600F039
:104A200025FF63680099019A5B186360002A71DBB7
:104A3000226061683B290BD93C22684600F016FFD2
:104A4000A3680099019A5B18A360002A67DB626083
:104A5000A16817290BD91822684600F007FFE36800
:104A60000099019A5B18E360002A5DDBA26021696E
:104A70000B290BD90C22684600F0F8FE63690099F7
:104A8000019A5B186361002A53DB226165691C236C
:104A9000AA0710D164212800FBF7C2FC1D230029BE
:104AA00009D13C4B9131E818FF31FBF7B9FC4B427F
:104AB00059410B001C33E2681D27002A65DD0326DF
:104AC0001C2722691800E168012A02D0324D9000AB
:104AD000405981425CDD091A0132E16022610C2AF1
:104AE000EFD1002365692361681C3B00606130429F
:104AF000E7D16421FBF794FC1D230029E1D1274B6A
:104B00009131E818FF31FBF78BFC4B4259410B0008
:104B10001C33D6E73C32013B2260636089E73C32BC
:104B2000013B6260A36093E71832013BA260E3603F
:104B30009DE70C32013B22616361A7E72269013ADC
:104B40002261013218D10B23032265692361681E9B
:104B50006061113310420FD16421FBF761FC3B000F
:104B6000002909D10E4B9131E818FF31FBF758FCB1
:104B70004B4259410B001C3321691A00012902D014
:104B8000054A89008A58B218E260E668002ED5DD31
:104B9000F7BDC0466C070000807700086D07000075
:104BA0006B070000F0B58FB0040000F0C9FE0700ED
:104BB0002000FFF72DFF3C236268A1685343226861
:104BC00066699B18E12212014A439B180093E26830
:104BD000DB1701932369501EAF4A99008A58821847
:104BE0000692012B12DDB30710D164213000FBF7D0
:104BF00017FC002907D1A94B9131FF31F018FBF7C1
:104C00000FFC002902D1069B01330693069BA44AA0
:104C1000E361A44BF318934200D98BE1462E00DCEC
:104C20009CE00322462394466146624619401342A3
:104C300000D090E002209C4D9C4A5D43C5416D3000
:104C4000FF3095420BD8954A9818974A4243042062
:104C5000C2419748904249416E31FF310800069A9F
:104C60000133121806929E42DED1069B914A0698A5
:104C7000D9170023FBF71EFC009A019B12184B4129
:104C80000092019300F03AFC00F048FC8A4B1D684A
:104C9000002D58D06369814A9818236A07930B93B3
:104CA000002B01DD01230B937B68834200D093E04E
:104CB0003B6D0A930A9B0893DB170993089809999F
:104CC0003A6A7B6A121A8B4104920593BA6CFB6CA8
:104CD0000C920D930C980D99BB6A1A009C46DB1739
:104CE000801A994102900391039B01998B4211DC38
:104CF00003D10099029B8B420CD80C980D99089A0D
:104D0000099B801A9941019DA9426ADC02D1009D4C
:104D1000A84266D83968002965D005990198814272
:104D20000DDC03D104990098814208D80199039BB6
:104D30008B4261DC03D10099029B8B425CD8002539
:104D4000079BAB425CDABB6A1E00DF17009A019B2F
:104D5000B6185F41D5E06E20FF3080E74525462E2E
:104D600000D182E703232B40AE4215DB002B2ED16E
:104D700064213000FBF754FB00292AD1474B9131C5
:104D8000F018FF31FBF74CFB4B4259416E31FF31BC
:104D9000069B5B1A069368E7002B16D16421280056
:104DA000FBF73EFBB7235B00002909D13B4B913158
:104DB000E818FF31FBF734FB4B424B416E33FF33B6
:104DC000069A013DD31A0693CCE76E23F7E76E21CE
:104DD000DDE7B7214900DBE700F0D6FA002800D074
:104DE00066E70B9D82E00599019881429EDC03D124
:104DF00004990098814299D8079B0125002B78DB04
:104E00000B9B6B400293012B70D162460A9B9B1A4D
:104E1000002D02D063460A9A9B1A18002268D917FF
:104E2000D2182260009A019B12184B410092019304
:104E3000E36820000493FFF7EBFDE268049B04990C
:104E4000D31A8A4252D0012B1DDC5A1C00DA029B75
:104E5000069AE169D21806920322C91802912FD549
:104E6000701E104212D16421FBF7DAFA002911D129
:104E7000124B9131F018FF31FBF7D2FA4B425941F6
:104E80006D31FF3104E001235B42E1E7B6214900C7
:104E9000E1612BE06E21F4E7B07700086C070000B9
:104EA000204E000010270000295C8FC2285C8F0272
:104EB0000AD7A300805101004C0200206B070000BC
:104EC00016422DD164213000FBF7AAFA002929D11E
:104ED0001A4B9131F018FF31FBF7A2FA4B425941BE
:104EE0006E31FF31029B8B421FDAE361012D00D04E
:104EF00029E73B6D01251E00DF17009A019BB618BC
:104F00005F4100F003FB0698072125620430FBF7A0
:104F100087FA00290CDBA161300039000FB0F0BD29
:104F20006E21DEE7B7214900DCE7029B591AAFE7A3
:104F30000731F0E701267642F717EDE76C0700002E
:104F400070B50500002910D00C1F2368002B00DA73
:104F5000E418280000F0D2FD1D4A1368002B05D18B
:104F600063601460280000F0D1FD70BDA34208D931
:104F7000216860188342F3D118685B68411821608A
:104F8000EEE71A005B68002B01D0A342F9D9116843
:104F90005018A0420BD120680918501811608342A4
:104FA000E0D118685B68411811605360DAE7A042ED
:104FB00002D90C232B60D5E721686018834203D106
:104FC00018685B684118216063605460CAE7C04696
:104FD0002802002070B50F4E0D0031680400002932
:104FE00002D100F08FF830602900200000F08AF82C
:104FF000431C0AD00323C51C9D43A84207D0291A8D
:10500000200000F07FF8431C01D101256D422800EB
:1050100070BDC0462C020020F7B50322CB1C934381
:10502000083306001F000C2B32D20C27B94231D8AE
:10503000300000F063FD324D2B681C00002C2ED197
:1050400039003000FFF7C6FF0400431C1ED12C6856
:105050002500002D4AD123682900E3183000019370
:1050600000F050F8019B834243D123680337FF1AB5
:1050700003239F4308370C2F00D20C273900300040
:10508000FFF7A8FF431C34D02368DF19276013E023
:10509000002BCBDA0C23002533602800FEBD2268EC
:1050A000D11B20D40B2917D9E2192760A34211D1B3
:1050B0002A606368116053603000250000F026FD0F
:1050C00007220B35231D9543EA1A9D42E5D05B1B51
:1050D000A350E2E75A60ECE76268A34201D12A607C
:1050E000EAE75A60E8E723006468A7E72C006D68E8
:1050F000AFE70C233000336000F008FDCDE7C04679
:1051000028020020002370B5064D040008002B6023
:10511000FCF7C4F8431C03D12B68002B00D023609C
:1051200070BDC0465C0200200EB400B50B499CB0B7
:105130001DAB02900690079104910948094904CBE0
:105140000591006802A9019300F04AFD0023029A2C
:1051500013701CB008BC03B01847C046FFFFFF7FA8
:10516000180000200802FFFF020010B51378140099
:105170000132002BFAD1CA5CE2540133002AFAD181
:1051800010BD0000F8B5164B05001F680E00BC6D81
:10519000002C1DD15020FFF715FC021EB86504D16C
:1051A0005721104B104800F043FB046044608460BA
:1051B000C4600461446184618462C46204634463C2
:1051C0008463C463046444648464C4640477446290
:1051D00031002800BA6D012300F008F8F8BDC04680
:1051E000180000200C77000840780008F0B500286F
:1051F00002D11068002813D0040020000E000578AA
:1052000001343778002F04D1002D0FD1280015600C
:1052100006E00136BD42F4D1002BEED114600370DC
:10522000F0BD2F000FE00133002E04D12300013424
:105230001D7827000B001E78B542F4D1002DF0D068
:105240000023013C23701760EAE70000F0B587B047
:105250001E00059001910292012B45D00B00242ED7
:1052600042D83F4A082194461A0060461478013318
:10527000005D1D0007000F400842F5D12D2C3AD1EA
:1052800001271C78951C002E65D0102E09D1302CDA
:1052900007D120222B789343582B57D110266C78B6
:1052A0000235304B3100FB1818000393FAF7CEFF9C
:1052B0000023012284461800049152422100303913
:1052C00009291DD80C00A64228DD002B24DB130081
:1052D000844506D302D10499A14202DB0123704325
:1052E00020182C780135E9E7FFF722FA162303602E
:1052F000002007B0F0BD2B2CC5D11C78951CC2E74F
:1053000021004139192901D8373CDCE721006139F6
:10531000192903D8573CD6E71300E2E7002B09DA36
:105320002223059A03981360029B002BE1D06B1E89
:10533000019307E0002F00D04042029A002AD8D003
:10534000002BF4D1029B019A1A60D2E73024002E80
:10535000A7D10836A5E7302C9BD00A26A1E7C04686
:1053600016790008FFFFFF7F10B5FFF76FFF10BD34
:1053700010B513000A00010002480068FFF766FF3D
:1053800010BDC04618000020F0B58DB0040000F03C
:10539000D7FA534B050000209C426DDD6E26642138
:1053A000504BFF36E01846434F4B6C60E3189B10A0
:1053B000F6184E4B4942E018FAF74CFFC8214C4B07
:1053C00036184900E018FAF745FF64213318200029
:1053D0000193FBF725F80291C82120004900FBF753
:1053E0001FF80B0003205A425A412B002E0058335D
:1053F000044003910B9208360A9309943378F768B6
:105400004A2B3BD1019BD819099B002B02D1029B4F
:10541000002B03D10024039BA34203D101243B2F83
:1054200000DC0024001901380023324AC117FBF7C1
:1054300041F833690493DB170593049B059CC0185E
:105440006141336A0693DB170793069B079CC018DC
:1054500061410A9BB061F1612836B342CED1E96C5B
:105460006A6A0123914205DC03D1AA6C296A8A4247
:1054700000D8002301202B600DB0F0BD442B02D1D9
:10548000019BD819D0E7099A0B9B002A03D1029AF5
:10549000002A00D001233022534300221648043B47
:1054A0007168019C1B1801329000185808909142B5
:1054B00010DC0721201DFAF7B3FF791A00D5073158
:1054C0000720B368013B58434018089B984204DA10
:1054D0002018A9E708982418E5E70738F5E7C0463B
:1054E000B10700004EF8FFFF4FF8FFFF93F8FFFFF2
:1054F000BFF9FFFF80510100E077000810B50248B6
:1055000000F0F7FA10BDC0465802002010B502485E
:1055100000F0F1FA10BDC0465802002010B5024B51
:10552000186800F003F810BD18000020F0B58DB029
:10553000060000F005FAB1490700300000F0FAF962
:10554000AF4C051E0DD1AF4BAF4A1860AF4B186082
:10555000AF4B20681A605A60FFF73EFA25600DB025
:10556000F0BD2168002959D12068FFF735FA2800DD
:10557000FAF7D4FD411C3000FFF74EFD20600028F3
:1055800051D12B78A3493A3B5A425341ED18280098
:10559000A14A0AAB00F008FF0028E0DD0A9BEC18E6
:1055A000EB5C2D2B43D12E3B01340493162602AB2A
:1055B000F618002308AD33802B800AAB20009749F2
:1055C000039302950193009607AA00F0EDFE0028D0
:1055D000C5DD3C233288924E53432A888C4D9B185C
:1055E00002AA918AE12212014A439B18049A89492E
:1055F0005A43894BBA622B600A9B3200E4182000A0
:105600000AAB00F0D1FE002818DC2B68BA6A6B6088
:105610007C4B1A6000227D4B1A60A0E7FAF774FDFC
:105620000028A1D19BE7290000F034FFA9E701225F
:105630002B3B04925A425341E418B7E70A9B6E6031
:10564000E518E35C2D2B00D093E02E3B013504934D
:105650001624002302AAA41808AE93822380338064
:105660000A930AAB28006D490393029601930094B4
:1056700007AA00F099FE002800DD81E0BB6A694AB4
:105680009C180A9B3C653C00ED18002308340593E8
:105690002B782C3B5A425341ED182B7804934D2B19
:1056A00000D07DE01A2602ABF6180AAB03931E2346
:1056B00002AA9B1802930AAB019309AB0093320034
:1056C000280059490AAB00F06FFE032800D046E7D6
:1056D00031884B1E0B2B00D941E702AB9A8B531E2E
:1056E000042B00D93BE702ABDB8B062B00D936E756
:1056F000049861602070A260E3600A9BEB18049339
:105700000223162607AA138002ABF618002308AD61
:1057100033802B800A93049B1B782F2B08D10AAB74
:1057200042490498039302950193009600F03CFED1
:105730003C23328853432A88049D9B1807AA11886A
:10574000E12212014A439B1823610A9B28349C469C
:10575000059B6544012B21D17868FFF715FEBA6AD5
:10576000284B1A603B6D9B1A5A1E9341274A1360BF
:10577000F5E601222B3B04925A425341ED1867E7AC
:105780003C232288049C534332889B1802AA918AA6
:10579000E12212014A439B185C4372E7012376E73A
:1057A000049B44264A2B01D11E0001350A22280001
:1057B0000BA900F017FF1E2302AA9B1818800B9B51
:1057C0000493AB4216D1059B002B08D14D333B729D
:1057D0004A3BFB60013B3B61059B7B6190E73B00E3
:1057E0004D2230331A700B237B630A3BBB630023CB
:1057F000FB6385E780B22670E06081E79D78000852
:105800004802002050020020A07800084C0200202E
:105810007C000020A47800083B020020C778000824
:1058200030020020F0F1FFFFB3780008C6780008CE
:1058300030B514001A00094B05001B6885B0D86804
:10584000074B002C01D1074B1C00019300912B004A
:105850000549029400F022F800F0B2FF1800002081
:10586000D978000814790008E678000870B50E00B1
:105870000400110030001500FAF7D2FD002E07DBFE
:10588000002901DA0130491B20606160200070BDF1
:105890000029F9DD01384919F6E700000EB403B517
:1058A000010003AB044804CB0068019300F0C0FA88
:1058B00002B008BC03B0184718000020F0B50D0076
:1058C00085B00600039200F095FF194F2B003C684D
:1058D000002C06D1300000F095FF002005B0F0BD8F
:1058E00001331A78002A1FD03D2AF9D1F2E7043497
:1058F00020680028EED02900019A00F0D3FD00288E
:10590000F5D12368019A9A180292019A9B5C3D2B6B
:10591000EDD13B683000E41A039BA4101C6000F03A
:1059200071FF02980130D9E75B1B0193E0E7C046A5
:105930000800002007B501AAFFF7C0FF0EBD000058
:105940000048704788000020F0B5066847680023CB
:105950003000594A85B00C003900FAF767FD002382
:10596000050039003000544AFAF760FD161E00DACF
:1059700088E0524BE12130000901ED18FAF76AFC8A
:10598000E121A06009013000FAF74AFD0E003C2138
:105990003000FAF75FFC3C2160603000FAF740FD10
:1059A000E81C21600721FAF73BFD002900DA0731E6
:1059B000A161281E424901DA424BE818FAF74AFC75
:1059C000070041484149784345192800FAF7B8FBD8
:1059D0003F4946192800FAF7B3FB3E49361A28001A
:1059E000FAF7AEFB6E21361A3000FF31FAF7A8FB4A
:1059F00064210190FAF7A4FB354902903000FAF7D0
:105A00009FFB029B0526181A45196E20019BFF304B
:105A1000584333002D1A6B43023399211800029327
:105A2000FAF78EFB03909920039B31005843023014
:105A3000FAF786FB6B1C1B1A9C46029A264B022126
:105A40009A4200D90C39C82040004743039B0020EC
:105A5000C918019B9922FF1801238B424041520033
:105A60003F18954212D32B00333BFF3BE3611B4BA6
:105A70002000FF186346E360002367612161236211
:105A800005B0F0BD0C4BF618154B73E70198154A9D
:105A9000800706D10220019E5643C6411248864225
:105AA00007D8019B11485A430423DA41002390424E
:105AB0005B413B35EB18D9E7805101006CFA0A00D5
:105AC000B13A020050C5FDFF4FC5FDFFAC8E00008E
:105AD000B4050000B03A0200F905000094F8FFFF99
